:10b00000c0b006c0b00ff813aff810bff8005ff87b
:10b0100004aff810bff8005f1f5ff800aff810bf73
:10b020009e5ff8f5a6f8b0b6f8f7a2f811b2e2c044
:10b03000ff3ff8b0b6f8d5a6f811b2f8f7a2e2c013
:10b04000ff3ff8b4bff843afd4ff09d5e273ff4127
:10b050003b59ff1b3359f801c8f800f660f0d5e200
:10b0600073ff613b6cff1b336cf801c8f800f6609e
:10b07000f0d5f800bdad0fd4b5e63b84fb2d32848e
:10b08000f801f6d5e28c739c738e73ae0ffb2d3aec
:10b0900095f801ae1f0fff303bc9ff0a33c98dacd5
:10b0a000fead9dbc7ebd8dfead9d7ebd8c528df4f2
:10b0b000ad9c529df4bd8dfead9d7ebd4fff3052c7
:10b0c0008df4ad9d7c00bd3095c46072ae72bcf055
:10b0d000acf800f6d5d4ff2df810bff800af9e5f96
:10b0e000f8babff85cafd4ff09f810bff813aff897
:10b0f000005fc0b3c8f810bff800af0fbef80cd4a3
:10b10000ff03c0b105d4b39c18d4b421f8b4bff880
:10b1100066afd4ff09f810bff825afd4ff0fd4b045
:10b1200042f800b8a8b9a919d4b39cf810bff82503
:10b13000afd4b072c3b13c9db88da8280ffb2cca08
:10b14000b14d1fd4b072c3b14d9db98da90fd4b00c
:10b150005fcbb1580fff205f0fff41c2b1e90fff76
:10b1600052c2b1ef0fff44c2b3520fff4ec2b1d271
:10b170000fff55c2b3250fff50c2b3120fff49c2d4
:10b18000b25c0fff54c2b24f0fff42c2b2490fff71
:10b190004bc2b2120fff47c2b1fd0fff51c2800375
:10b1a0000fff56c2b1be0fff53c2b9be0fff4cc254
:10b1b000ba07f8babff8a6afd4ff09c0b105f810b6
:10b1c000a7f810b7f800aff87ebf475f1f475fc012
:10b1d000e003f810bff813aff8005ff810bff804f1
:10b1e000aff8005f1f5fc0b3c8d4b46ac0b105f840
:10b1f00010bff810af4fb04fa0d0c0b105d4b3a767
:10b20000d4b3dbcbb20cd4b405d4b3a7d4b371c0e0
:10b21000b105d4b3dbc3b2409abd8aadd4b3a7891c
:10b220005288f4a89952987c00b8d4b3db0ac2b211
:10b230003ffc01ac4a5d1d2c8ccab234c0b22d5dfe
:10b24000d4b39cd4b371c0b105d4b405c0b253f823
:10b2500000b8a8d4b3a7d4b371c0b1051fd4b3a7a5
:10b260000fcab290d4b39c18d4b421f83ad4ff03d7
:10b27000f810bff825afd4ff0f7e73d4b04260f052
:10b28000f6c3b105f810bff825afd4b296c0b264ca
:10b29000d4b296c0b105f800acbc8f739f731c4f3d
:10b2a000ff09329e2f4fff20c3b29e8c731c1cd40b
:10b2b000b4058c528aa9f4ad9c529ab974bd9dfc18
:10b2c00001bd99fc01b9d4b39cd4b3db095d8a52aa
:10b2d00089f7cab2df9a5299f7cab2dfc0b2e4293d
:10b2e0002dc0b2ccd4b39cd4b3db6072fc015aff46
:10b2f000011aac2c72bff0af8cc2b3034f5a1a2c98
:10b30000c0b2f8f80d5a1af80a5ad4b39c18d4b33c
:10b31000a7d589cab31d99cab31dc0b105d4b371ed
:10b320001829c0b31289cab33399cab333d4b371dd
:10b33000c0b105d4b39c88cab34a98cab34af8b41a
:10b34000bff856afd4ff09c0b10528d4b3a729c0b0
:10b35000b32589cab36099cab360d4b371c0b105cb
:10b36000d4b39c18d4b3dbc3b3bcd4b3a729c0b344
:10b3700052d4b3dbcbb378d518d4b42128f8b4bffa
:10b38000f868afd4ff094aacc2b3988cc2b3974aed
:10b39000d4ff032cc0b38bd5d4b042d5f810bff87e
:10b3a00004af4fb84fa8d58f739f73f810bff80440
:10b3b000af985f1f885f6072bff0afd5f8b4bff879
:10b3c00046afd4ff09c0b105f8b4bff83bafd4ff16
:10b3d00009f800a8b8d4b3a7c0b105f810baf8139b
:10b3e000aa98bc88ac9ccab3ed8cc2b3fd4ac2b467
:10b3f00001528af4aa9a7c00ba2cc0b3e5fc00f68c
:10b40000d52aff00d5f810baf813aaf800b8a84a50
:10b41000c2b41f528af4aa9a7c00ba18c0b40f2a88
:10b42000d598bd88adf810bff815afd4ff60f8000f
:10b430005ff810bff815afd4ff09d54e65772066c9
:10b44000696c650d0a00456e64206f662062756642
:10b450006665720a0d00546f70206f662062756613
:10b460006665720a0d003e003a00d4b4051af81061
:10b47000bff80eaf9a5f1f8a5ff8005af810bff846
:10b480000aaf9a5f1f8a5ff810bff802aff8005f3b
:10b49000baaaf810bdf813add4b83bf810bff80243
:10b4a000aff8015ff800baaaf810bdf813add4b830
:10b4b0003bd54fc2b4bbff21cbb4b22fd5d4b69d80
:10b4c000f810b8f810a89d58188d58c0b54cd4b6cf
:10b4d0009d9dba8daac0b54cd4b5800fff27c2b4cc
:10b4e000f8d4b69d8dd4b58bd4b5800fff2ccab4db
:10b4f000f51fc0b4d8c0b54c1f4fc2b4f5aeff277e
:10b50000c2b4e88ed4b58bc0b4f9d4b5800fff2790
:10b51000c2b52ed4b69d9dd4b58b8dd4b58bd4b584
:10b52000800fff2ccab52b1fc0b50ac0b54c1f4fea
:10b53000c2b52baeff27c2b51e8ed4b58bc0b52fba
:10b54000d4b69d8dfa0fc2b550d4b58bf800f6d5a0
:10b55000f801f6d5d4b69d8dc2b550ff08c3b550dd
:10b560008df960d4b58bc0b54cd4b69d8dc2b550a5
:10b57000ff08c3b5508dfc08f960d4b58bc0b54c3d
:10b580004fc2b589ff21cbb5802fd55af810b8f836
:10b5900002a808c2b5e48d739d738f739f73f81072
:10b5a000bff803af0fff04cab5b6f8005ff8babf23
:10b5b000f8aeafd4ff090aadf810bff8a6afd4ffbc
:10b5c00048f8205f1ff8005ff810bff8a6afd4ff5f
:10b5d00009f810bff803af0ffc015f6072bf72afd4
:10b5e00072bdf0ad1ad5aeff30cbb5f5ff0ac3b5cd
:10b5f000f5fc008ed5ff008ed573d4b5e6cbb62111
:10b6000060f073ff41cbb61cff06cbb62160f0ffa4
:10b6100061cbb61dff06cbb622c0b61d60f801f6a1
:10b62000d560f800f6d573d4b5e6c3b63260f0ff46
:10b6300030d560f0fadfff37d58f739f730fff218e
:10b640000fff2cc2b692cbb6920fd4b5e6c3b65458
:10b650001fc0b63d0fff21cbb68a0fff48c2b6719f
:10b660000fff68c2b6710fd4b5f9c3b68a1fc0b652
:10b67000541f0fff2cc2b67e0fff21c3b68a607223
:10b68000bff0afd4ff451ff801d56072bff0aff82f
:10b6900003d56072bff0afd4ff5df800d5d4b5809c
:10b6a0000fc2b6f6d4b5e6cbb6e60fff52c2b6c8a7
:10b6b0000fff72c2b6c8d4b8e8c3b6c0f800f6d55a
:10b6c000f800bdadf807f6d51f0fd4b5f9c3b6e243
:10b6d0001f0f2fff21c3b6e20fd4b626adf800bd71
:10b6e000f6d52fc0b6b6d4b639ff03c2b6f2f8000d
:10b6f000f6d5f805f6d5f800bdadf803f6d5f81087
:10b70000b8f80ca89a58188a58f810b8f802a8087f
:10b71000c2b7428f739f73f810bff803aff8005f92
:10b720009abd8aadf810bff8a6afd4ff4bf8205fe2
:10b730001ff8005ff810bff8a6afd4ff096072bf12
:10b74000f0af0fff21cbb7739fb98fa90fff3ac29c
:10b75000b75c0fff21cbb75c1fc0b74cf8005f8f01
:10b76000739f7399bf89afd4b97f6072bff0aff890
:10b770003a5f1ff8bab9f8b6a9d4b580d4b805cbea
:10b78000b79219191909cab77cf801f6d5f800c0a3
:10b79000b78b49ff01cab79f49d4b58bc0b78dff9e
:10b7a00001cab7b549d4b58bd4b69dc3b7f88dd40b
:10b7b000b58bc0b78dff01cab7cf49d4b58bd4b60e
:10b7c0009dc3b7f89dd4b58b8dd4b58bc0b78dff15
:10b7d00001cab7e6f810b7f812a7f8c057174957cb
:10b7e000170957c01012d4b69dc3b7f88dfa0f527f
:10b7f00049f1d4b58bc0b78df8babff8a6afd4ff66
:10b8000009f800f6d58f739f7349aefa80cab8263f
:10b810004f528ef7c2b80949fa80c2b817f801f63c
:10b820006072bff0afd54f528efa7ff7cab81d0fc6
:10b83000ff21c3b81df800f66060d5f810bff825e9
:10b84000afd4b8c4c3b8c38cc2b83bf825aff810a6
:10b85000bfd4ba32f810bff825af8d739d73d4b63c
:10b86000fef810bff802af0fc2b8af7673f810bf82
:10b87000f803af0f73ff04c2b89af810bff8a6af71
:10b88000f8205f1f5f1f5f1ff8005f1f2f2f2f2ff4
:10b89000d4ff0960f0fc01c0b87460f810bff8254f
:10b8a000afd4ff09f8b4bff843afd4ff0960fecbb3
:10b8b000b8bbf8babff8a6afd4ff096072bdf0ad4f
:10b8c000c0b83bd5f800bcac0dc2b8e4ff02ae1d59
:10b8d0008ec2b8dc4d5f1f1c2ec0b8d0f8005f1db3
:10b8e0001dfc00d5ff005fd50fff24cab8fef8107d
:10b8f000bdf80cad4dae0dad8ebdf800f6d5f8100f
:10b90000b8f802a808cab90ef800bdadf6d5f8100f
:10b91000b8f80ea848ae08a88eb808cab922f8012f
:10b92000f6d58f739f734852fa80cab9424ff7c257
:10b93000b92648fa80c2b93218186072bff0afc099
:10b94000b91a02fa7f524ff7cab9384faeff2ec26a
:10b95000b9758eff21c3b9386072bff0aff800ae81
:10b9600048bd48ad8eff31c2b96ef800f6d59dad29
:10b97000f800f6bdd50fae6072bff0afc0b960f889
:10b9800010b8f802a808c2b98ad5f810b8f80aa801
:10b9900048ae08a88eb84faeff21cbb9a38e581879
:10b9a000c0b9962808f98058189a58188a5818f873
:10b9b0000058f810bff80aaf985f1f885fd5d48091
:10b9c00006f813acf810bc4cc2b9d6528cf4ac9c3f
:10b9d0007c00bcc0b9c79cff10bcf825aff810bff5
:10b9e0009c5f1f8c5f2f8c739c73f802acf800bcbb
:10b9f000d4800ff800aff810bf6072bcf0acd480f8
:10ba00000fd48012c0b105d48009f825aff810bf5b
:10ba1000f802acf800bcd4800cf825aff810bf4f8a
:10ba2000bc0facf800aff810bfd4800cd48015c0a8
:10ba3000b1050fff27c2ba4f0fc2ba4eff61cbba92
:10ba40004aff1bc3ba4a0fff205f1fc0ba32d51f7f
:10ba50004fc2ba4eff27c2ba32c0ba504564742fe3
:10ba600041736d202830322f32312f3036290a0da4
:10ba700028632920436f70797269676874203230b7
:10ba80003036206279204d69636861656c20482eec
:10ba90002052696c65790a0d0046696c6520457213
:10baa000726f720a0d004572726f720a0d000a0df4
:10bab0002020202020004144c401f4004144c3015f
:10bac0007400414443c9027c004144c902fc004166
:10bad0004ec401f200414ec902fa0042b1023400e4
:10bae00042b202350042b302360042b4023700428d
:10baf00044c6023300424eb1023c00424eb2023d07
:10bb000000424eb3023e00424eb4023f00424ec6d7
:10bb1000023b00424ed102390042d102310042d2f2
:10bb200002300042da023200424eda023a00444564
:10bb3000c30520004449d30171004748c90590005e
:10bb4000474ccf0580004944cc010000494ec30555
:10bb50001000494ed004b5694952d80160004c42ea
:10bb600044c603c3004c424ec603cb004c424ed1e8
:10bb700003c9004c424eda03ca004c42d103c10053
:10bb80004c42d203c0004c42da03c2004c44c1050f
:10bb900040004c44c902f8004c44ce04b5404c442b
:10bba000d801f0004c4458c10172004c5344c60106
:10bbb000cf004c5349c501cc004c534ec601c700c1
:10bbc0004c534ed101c5004c534eda01c6004c53c4
:10bbd000d101cd004c53da01ce004d4152cb017959
:10bbe000004e42d20138004e4c42d201c8004e4fa6
:10bbf000d001c4004fd201f1004f52c902f9004fe9
:10bc000055d404b5545048c905b000504ccf05a0d8
:10bc1000005245d40170005245d1017a0053c4014d
:10bc2000f5005341d60178005344c20175005344d6
:10bc300042c9027d005344c902fd005345d005d0de
:10bc4000005345d1017b005345d805e0005348cc53
:10bc500001fe005348d201f60053484cc3017e0058
:10bc6000534852c301760053cd01f700534dc20132
:10bc70007700534d42c9027f00534dc902ff005364
:10bc800054d2055000535458c4017300584fd20188
:10bc9000f3005852c902fb00454ec404b4bd4f52d4
:0fbca000c704b4ce44c204b4d844d704b50a00d4
:00000001ff
